:020000040800F2
:10000000A041012075020008B14D0008F13D000833
:10001000AD4D000811100008156500080000000033
:10002000000000000000000000000000B15D0008BA
:100030002D10000800000000F15C0008B95E000807
:100040008F0200088F0200088F0200088F0200084C
:100050008F0200088F0200088F0200088F0200083C
:100060008F0200088F0200088F0200088F0200082C
:100070008F0200088F0200088F0200088F0200081C
:1000800015100008211000088F0200088F020008D8
:100090008F0200088F0200088F0200088F020008FC
:1000A0008F020008A55F00088F0200088F02000879
:1000B0008F020008C55F00088F0200088F02000849
:1000C0008F0200088F0200088F0200088F020008CC
:1000D0008F0200088F020008FD640008096500080F
:1000E0008F0200088F0200088F0200088F020008AC
:1000F0008F020008DD5F00088F0200088F020008F1
:100100008F0200088F0200088F0200088F0200088B
:100110008F020008F56200088F020008D15F000816
:100120008F0200088F0200088F0200088F0200086B
:100130008F0200088F0200088F0200088F0200085B
:100140008F0200088F0200088F0200088F0200084B
:100150008F0200088F0200088F0200088F0200083B
:100160008F0200088F0200088F0200088F0200082B
:100170008F0200088F0200088F02000800000000B4
:100180008F0200088F02000800F002F800F062F809
:1001900014A696E8000CB244B344DA4501D100F04D
:1001A00059F8BAE80F000FA696E83000A5EB040551
:1001B00004EB0607AAEB0704A7F101074FEA1515A0
:1001C0004FEA3414A4F10104AC4201D300F042F828
:1001D00013F0010F18BFFB1A43F0010300F001F800
:1001E000DBE7184744ED000064ED0000103A24BF3F
:1001F00078C878C1FAD8520724BF30C830C144BF8C
:1002000004680C6070470000704700000023002461
:1002100000250026103A28BF78C1FBD8520728BF16
:1002200030C148BF0B60704766290DF01682642903
:1002300000F02681002070471FB50DF0FCF900F09A
:1002400071FD0400002000210CF0DCFCE0601FBD0B
:1002500010B510BD00F067FE1146FFF7EDFF07F087
:10026000E3F900F085FE03B4FFF7F2FF03BC00F0F2
:10027000C9FE00000948804709480047FEE7FEE73D
:10028000FEE7FEE7FEE7FEE7FEE7FEE7FEE7FEE746
:1002900004480549054A064B70470000915F000875
:1002A00089010008A03B0120A0410120A03D0120C0
:1002B000A03D012053EA020C00F069802DE9F04BCB
:1002C0004FF00006002B1FBFB3FA83F503FA05F4C5
:1002D00024FA05F65E4012BF1643B2FA82F502FA1E
:1002E00005F4C5F120051EBF22FA05FC44EA0C0402
:1002F000203556EA044C4FEA144418BF641C4FF0F2
:1003000000084FF00009904271EB030C39D300292B
:1003100019BFB1FA81F701FA07F6B0FA80F700FACF
:1003200007F6C7F120071EBF20FA07FC46EA0C06B5
:100330002037B6FBF4FCA7EB0507103F07F01F0BB7
:10034000CBF120062CFA06F60CFA0BFB44BFB346A1
:100350000026202FA4BF5E464FF0000B5BEA060C80
:1003600008BF4FF0010B19EB0B0948EB0608ABFB7C
:10037000027C06FB02CC0BFB03CCC01B71EB0C0117
:10038000C1E70B46024641464846BDE8F08B13B52F
:10039000084318BF4FF0FF300146AFF30080BDE8BF
:1003A0001C40704753EA020C23D010B54C1084EA6D
:1003B000530404D54042C1F1000138BF491E1B421D
:1003C00004D55242C3F1000338BF5B1EFFF772FF32
:1003D00014F0804F04D04042C1F1000138BF491EE3
:1003E00014F0004F04D05242C3F1000338BF5B1E2B
:1003F00010BD13B540424FF0000070EB0104B8BFD0
:10040000012001F0004100281CBF6FF000414FF0B7
:10041000FF30AFF300801CBD0FB41CB5074B06AA1C
:100420007B4469460090059800F0FFFB0020694678
:1004300000F00EFC1CBC5DF814FB00002D08000051
:100440000FB41CB50C0007AA009007D04142A1428E
:1004500002D32044401E01E04FF0FF30074B7B44A5
:1004600069460190069800F0E0FB0020002C01D0C6
:10047000009908701CBC5DF814FB0000F90700002F
:100480002DE9F0410646002410687529314616A56D
:1004900010D0AFF30080002802DA404213A507E035
:1004A00031688A0701D512A502E0490704D511A5D4
:1004B000012401E0AFF3008000210A2206F12407A5
:1004C00009E0B0FBF2FCB0FBF2F302FB1C003030A1
:1004D00078541846491C0028F3D123462A46304652
:1004E000BDE8F04100F035B9000000002D0000002B
:1004F0002B000000200000002DE9F0474FF0000A1B
:1005000089460446C0F820A02046E16888470028B4
:1005100076D0252806D0D4E901219047206A401CD6
:100520002062F1E7E168204600258847C4F81CA056
:1005300006460027C4F818A02A2E09D030460CF031
:100540004DFB38B304EB8708303EC8F8186019E05B
:1005500059F8041B204604EB87029161E168884743
:10056000012F064618D1E069002820DA25F0200581
:100570001DE0D8F8180000EB800006EB4000303892
:10058000C8F818002046E168884706460CF026FBAC
:100590000028EED1012F0AD02E2E08D12046E16886
:1005A00088477F1C0646022F45F02005C4DBA06962
:1005B000002803DA404245F00105A061E80701D0B8
:1005C00025F01005B6B1A6F14100192802D8203651
:1005D00045F400654A463146204625604D46FFF702
:1005E00023FE58B1012806D0ED1D25F0070000F1CB
:1005F000080989E704E005F1040985E730468AE740
:10060000206ABDE8F08740EA010310B59B070FD1CF
:10061000042A0DD310C808C9121F9C42F8D020BA72
:1006200019BA884201D9012010BD4FF0FF3010BD2A
:100630001AB1D30703D0521C07E0002010BD10F8F8
:10064000013B11F8014B1B1B07D110F8013B11F8BE
:10065000014B1B1B01D1921EF1D1184610BD10B5E4
:10066000431C02E010F8011B71B18107FAD14FF071
:10067000013202C88C1A8C4314EAC211F9D0C01A94
:100680000A0603D0C01E10BDC01A10BD0A0401D056
:10069000801E10BD0902FCD0401E10BD032A40F28E
:1006A000308010F0030C00F0158011F8013BBCF114
:1006B000020F624498BF11F801CB00F8013B38BF2C
:1006C00011F8013BA2F1040298BF00F801CB38BF3A
:1006D00000F8013B11F0030300F0C782083AC0F0B4
:1006E000088051F8043B083A51F804CBA0E8081000
:1006F000F5E7121D5CBF51F8043B40F8043BAFF333
:100700000080D20724BF11F8013B11F801CB48BF8C
:1007100011F8012B24BF00F8013B00F801CB48BFC2
:1007200000F8012B704702F0FF0343EA032242EA7C
:10073000024200F0CEBA70477047704710B500F023
:10074000F5FA006810BD10B5044600F0EFFA046039
:1007500010BD2DE9F0470D4699469246044600F13A
:1007600024080168880604D5E06921F010012160A1
:1007700000E00120A84201DD471B00E00027A1693D
:100780007A1902EB0900081AA0612078C00602D489
:100790002046AFF30080002608E0D4E901211AF8D2
:1007A00006009047206A401C761C20624E45F4DB10
:1007B0002078C0060AD52046AFF3008006E0D4E9D1
:1007C000012130209047206A401C2062381EA7F18A
:1007D0000107F4DC07E0D4E9012118F8050090478F
:1007E000206A401C2062281EA5F10105F3DC20468A
:1007F000AFF300802078000602D50220BDE8F08724
:100800000120FBE72DE9FF4F0C461E464FF0FF3756
:100810008BB0D2E90001DDF860800A908A46C1F30E
:100820000A5505B93D46002108464FF00000BAF1CF
:10083000000F00F4400005DA00EB80004FF44001A7
:1008400001EA50004FEA9059B9F1010F00DDB946B5
:100850000A9850EA4A000ED044F61050A5F2FF352F
:1008600045432F14B8F1000F1ED07542291E1EDD1E
:10087000C9F100021CE0B8F1010F4FF0000001D0F7
:10088000302103E0F24305E02154401CB042FBDB81
:1008900030460022002121540B99C1F80880C1E99B
:1008A00000200FB0BDE8F08FBD1B6D1CDEE74A468F
:1008B00000DA694206A800F0C3FA06AB93E8070025
:1008C00003AB83E8070050460A990AF0B9FE8DE8A9
:1008D0000700A0F500501F3800900398002D0ADD96
:1008E00042F21F014A460844002303A903906846C8
:1008F0000BF022F909E0A0F500504A461F3800230A
:1009000003A9039068460BF02CF98DE8070000045A
:10091000000C03D04FF0FF30410800E01046B8F162
:10092000000F03D00022009215461EE0751E05D46C
:1009300000F000FA303262556D1EF9D5B34601223F
:10094000084302D000227F1C04E02078302801D127
:1009500000227F1E002A099784D01DE0112D07DA9E
:1009600000F0E8F9303262556D1C50EA0102F5D111
:10097000084302D00098C8B10EE00021681E05E0CF
:10098000235C625C63542254401E491C8142F7DBA5
:10099000AB46A81B401E0990002004F80B000B98E2
:1009A000099AC0F80880C0E9002B7AE711264FF0B9
:1009B000000857E72DE9F04F88460446D21D22F083
:1009C000070191B0D1E90001CDE90A010BF000FA6D
:1009D00002460B98C00F01D02D2007E02068810748
:1009E00001D52B2002E0202101EAC000032A099052
:1009F00001D0072A05DB03464146204600F0E0F916
:100A00000BE12078800601D5E06900E00620B8F10E
:100A1000650F814606D0B8F1660F18D0B8F1670FA0
:100A200070D131E00020B9F1110F009001DB1123EA
:100A300001E009F101030AAA01A90CA8FFF7E2FEEF
:100A4000DDE90C70002609F10105834647E001202D
:100A50004B4600904FF000470AAA01A90CA8FFF7E7
:100A6000D1FEDDE90DB00C995D46002610B909F103
:100A700001000D18B9EB050003D4C0F1FF3609F1F0
:100A80000105A5EB09002BE0B9F1010F01DA4FF0E8
:100A900001090020B9F1110F0090484601DD112332
:100AA00000E003460AAA01A90CA8FFF7ABFEDDE9A6
:100AB0000C704D4600268346207800070AD4AB45CB
:100AC00000DA5D4601A8012D04DD411911F8011C71
:100AD000302907D04F4502DA17F1040F04DA01205C
:100AE00082460FE06D1EEEE7002F02DCED1B3E4458
:100AF00003E0781CA84200DD7D1CB81B00F1010A50
:100B00004FF000472078000703D4AA4501DB4FF0DF
:100B1000FF3A0021B7F1004F0DF143088DF8431063
:100B200024D002202B23002F01DA7F422D230A211B
:100B3000021EA0F1010000DC5FB197FBF1FC97FB06
:100B4000F1F201FB1C7C17460CF1300C08F801CDCA
:100B5000EEE7A8F1010003702188090501D54521C0
:100B600000E06521A0F1010800F8011C09980FA917
:100B7000A1EB0807FF1D00B10120411901EBEA704C
:100B8000A1693844081A401EA0612078C00602D42A
:100B90002046AFF30080099828B1D4E9012190479D
:100BA000206A401C20622078C00622D52046AFF380
:100BB00000801EE0002E04DBB34502DD01A8805D4D
:100BC00000E03020D4E901219047206A401C2062D7
:100BD000761CAAF101005FEA000A0AD100F0A2F82F
:100BE000C0680168405CD4E901219047206A401C3C
:100BF0002062281EA5F10105DCDC07E0D4E9012113
:100C000018F8010B9047206A401C2062381EA7F19B
:100C10000107F3DC2046AFF30080032011B041E66A
:100C200001694A1C02610878704700B58FB0CDE9B0
:100C300001310021059105497944CDE903101146A0
:100C40006846FFF759FC0FB000BD0000E5FFFFFF4D
:100C50000A6802F8010B0A607047D1E900239A4242
:100C600002D2531C0B601070704710B5203AC0F0D0
:100C70000B80B1E81850A0E81850B1E81850A0E86F
:100C80001850203ABFF4F5AF5FEA027C24BFB1E808
:100C90001850A0E8185044BF18C918C0BDE810404B
:100CA0005FEA827C24BF51F8043B40F8043B08BF54
:100CB0007047D20728BF31F8023B48BF11F8012B1B
:100CC00028BF20F8023B48BF00F8012B70474FF0C7
:100CD000000200B5134694469646203922BFA0E88C
:100CE0000C50A0E80C50B1F12001BFF4F7AF090798
:100CF00028BFA0E80C5048BF0CC05DF804EB890089
:100D000028BF40F8042B08BF704748BF20F8022BCB
:100D100011F0804F18BF00F8012B70470048704752
:100D200048000020004870476800002000487047D5
:100D30004800002030B5B0F10A0271F100034FEA1B
:100D4000900E4EEA817EB0EB0E0061EB91014FEA0E
:100D5000101E4EEA017E10EB0E0041EB11114FEA1E
:100D6000102E4EEA016E10EB0E0041EB11214FEAFE
:100D7000104E4EEA014E10EB0E0041EB11414018AF
:100D800041F100014FEAD00040EA41704FEAD10141
:100D90004FEA810444EA907410EB800544EB0104AF
:100DA0006D1944EB0404521BA3414FF0000348BFEC
:100DB0000A3200D530BD401C41F1000130BD0000B9
:100DC0002DE9F0411F46044603260168072A01F475
:100DD000006004DB08B116A505E016A503E008B124
:100DE00015A500E015A521F010002060A069C01E27
:100DF000A0610FB1401EA0612046AFF300804FB14B
:100E0000D4E9012138469047206A401C2062C01C6A
:100E1000206206E0206AFAE7D4E9012115F8010B07
:100E20009047761EF8D22046AFF30080BDE8F081EF
:100E30004E414E006E616E00494E4600696E66007E
:100E40002DE9F047814616468AB0354878440DC8EA
:100E50008DE80D0032487844801C03AC0DC884E84E
:100E60000D0041F69B300844372190FBF1F290FBD6
:100E7000F1F5A5F1800501FB12041B3C02D564428B
:100E8000012000E00020DFF898A080460027FA4407
:100E9000AAF1BE0A0EE0E0070AD03246684607EB28
:100EA000470101230AEB81010AF05BFE8DE8070090
:100EB00064107F1C002CEED1194F7F44AE3F19E027
:100EC000E80715D007EB04100DF1180A90E80E00A2
:100ED0008AE80E00C068F04201D1981908903246A5
:100EE000012306A903A80AF03CFE03AB83E8070030
:100EF0006D10641C002DE3D14FF0010332466946AA
:100F0000B8F1000F03A802D00AF016FE01E00AF0C3
:100F100028FEC9E90001C9F808200AB0BDE8F08739
:100F2000DCC9000070477546FFF7F8FEAE460500C5
:100F30006946534620F00700854618B020B5FFF7F4
:100F4000A7F9BDE820404FF000064FF000074FF032
:100F500000084FF0000BAC46ACE8C009ACE8C00993
:100F6000ACE8C009ACE8C00921F007018D46704724
:100F700010B50446AFF300802046BDE81040FFF7EF
:100F800072B900000000000030B44FF0013C50F88E
:100F9000042B51F8043BCCFA52F4D51A20D1FCB9F9
:100FA00050F8042B51F8043BCCFA52F4D51A17D15F
:100FB000B4B950F8042B51F8043BCCFA52F4D51ACA
:100FC0000ED16CB950F8042B51F8043BCCFA52F412
:100FD000D51A05D1002CDAD030BC4FF00000704794
:100FE00029BAB1FA81F111F01801D1F12000844041
:100FF000F2D1CA40CB4012F0FF0213F0FF0330BC25
:10100000D01A704701491820ABBEFEE72600020047
:10101000FEE7000040F67410C2F2000000F02AB9AA
:1010200040F6D410C2F2000000F024B9704700006E
:1010300010B52DED068B9FED582A9FED561AF5EE53
:10104000400A9FED56AAF1EE10FA08BFF0EE410AF1
:10105000F4EE420A9FED521AF1EE10FAC8BFF0EE1C
:10106000420AF4EE4A0A9FED4F2AF1EE10FAC8BF89
:10107000B0EE60AA2AEE011A81EE021A40F2F004E4
:10108000B0EE408AC2F2000411EE100A0CF062FACF
:1010900041EC100B24680BF037F8B0EE409A204674
:1010A000F0EE609A0CF056FA53EC192B0BF0A6FEFA
:1010B0000BF0CAFD00EE100A40F2EC00C2F2000094
:1010C00090ED001ABEEE002AB6EE003A21EE022A9A
:1010D00021EE031A32EE002A31EE001A9FED324A59
:1010E00022EE082A21EE081A82EE002A81EE000A7A
:1010F0002AEE041AB2EE024A81EE041A9FED2B4A40
:1011000040F23851C2F2000122EE032A20EE030A17
:101110009FED273A31EE041ABDEEC11A11EE100A06
:101120009FED241AB4EE432AF1EE10FAC8BFB0EED8
:10113000432AB4EE412AB0EE414AF1EE10FAC8BF9C
:10114000B0EE424A81ED024AB4EE430A40F24C51FD
:10115000F1EE10FAC8BFB0EE430AB4EE410AC2F293
:101160000001F1EE10FAC8BFB0EE401A81ED021A8C
:1011700040F698018842B8BF014640F66010C2F2BE
:101180000000B1F5487FD8BF4FF448710160BDEC55
:10119000068B10BD0AD7233C00007842000078C2BD
:1011A000DB0F4940000034430000C8420080BB44CC
:1011B0009A99993F9A9999BF72B600BFFEE70000CD
:1011C00070B5866D044600F0D1FA94F83510022906
:1011D00028D105462068216C026822F016020260C0
:1011E000426922F08002426109B9A16C19B101681B
:1011F00021F008010160016821F00101016000BFD8
:1012000020680068C00715D000F0B0FA401B06281F
:10121000F6D320206065032084F83500002184F88F
:10122000341070BD802060650120002184F83410E6
:1012300070BD00BFE06D3F2101FA00F0B0600120F9
:1012400084F835000020002184F8341070BD0000BF
:1012500090F83510022909D1052180F83510006871
:10126000016821F001010160002070478021416583
:1012700001207047F0B581B004460020009040F294
:101280000800C2F200000268D4E9166048F2B51303
:1012900037680821C1F64E3381403942A2FB03254D
:1012A0000CD0226813685B0708D5136823F0040389
:1012B0001360B160616D41F0010161650121814000
:1012C000394208D022685269120604D5B160616DB6
:1012D00041F00201616504218140394208D0226851
:1012E0001268920704D5B160616D41F00401616537
:1012F00010218140394217D020680268120713D5A7
:10130000B16002680168520308D4C90508D40168B5
:1013100021F008010160216C21B905E008033FD4E8
:10132000216C09B120468847E16D202000FA01F2C6
:101330003A4241D020680368DB063DD5B26094F89C
:1013400035300268052B1BD122F01602026042697B
:1013500022F080024261226C0AB9A26C1AB10268C2
:1013600022F0080202603F208840B060012084F82B
:101370003500216D0020002984F8340052D157E057
:101380000168520310D4C90512D4016821F010017C
:101390000160012084F83500002084F8340007E063
:1013A000A16C0029BED1BFE7080301D4616C00E045
:1013B000E16B09B120468847606DC8B3606DC00716
:1013C0002ED0052084F835002068A90A026822F092
:1013D00001020260009A01328A4200921AD8026821
:1013E000D20717D0009A01328A42009212D80268BE
:1013F000D2070FD0009A01328A4200920AD80268BE
:10140000D20707D0009A01328A42009202D80268BD
:10141000D207DFD1012084F83500002084F83400A1
:10142000E16C29B1204601B0BDE8F040084700BF9B
:1014300001B0F0BD2DE9F041044600F097F9ECB1A0
:101440000546022084F835000020216884F8340025
:10145000086820F00100086021680868C00711D002
:1014600000F084F9401B0528F6D90325202303202A
:10147000636584F83550BDE8F08100BF0120BDE808
:10148000F08100BF086848F23F02CFF21002D4E9B1
:10149000013500EA020C04F10C0898E8C10143EAA6
:1014A0000C032B431843D4E9072E30433843104331
:1014B000626A40EA0E00042A40EA08031CD1206B4D
:1014C000D4E90A2E40EA0E00184308604869BEF1CC
:1014D000000F20F0030040EA020040F0040C11D09D
:1014E000B8F5005F36D0B8F1000F45D1022A46D0DA
:1014F000012A3BD032B942E00B60486920F0070076
:1015000040EA020C01F0F8004AF6AB221038CAF6A5
:10151000AA22A0FB02231A094DF66203C1F814C0E7
:10152000C0F600039A5C40F2FF335F284FF03F00A3
:1015300021EA030100FA02F088BF0431C4E916125F
:101540008860002301250020636584F83550BDE8DC
:10155000F08100BF032AD5D8012540230120DFE810
:1015600002F0030E030500BF82E700BFAEF1C070BA
:10157000B0FA80F0400904E0032A04D3C2D1CEF3CC
:1015800000600028BED0012540230120636584F857
:101590003550BDE8F0810000B0B5044600F0E6F833
:1015A000054640F20000C2F200000078611C18BF3E
:1015B000044400BF00F0DAF8401BA042FAD3B0BDEB
:1015C0002DE9F04F82B000F13E4707F1FF77860525
:1015D00046EA972741F60046C4F20206082243F67F
:1015E000004EB04208BF0722C4F2010E072F38BFD9
:1015F0003A46002600274FF00008009209E000BF9D
:1016000008F101080237B8F1100F06F1040600F0E6
:10161000A3800D68012202FA08F415EA0409EFD04C
:10162000D1F804B003220BF0030CACF10105BA4071
:10163000012D6FEA020A0FD88268CD6802EA0A0219
:10164000BD402A4382604268A243CBF3001404FAEF
:1016500008F42243426005E0BCF1030F02D14FF0D1
:10166000030C1EE0C2688C6802EA0A02BC402243F6
:10167000BCF1020FC26014D16FF0030202EA5802FB
:101680000244D2F820C006F01C040F230D69A340C9
:101690002CEA0303A5402B431362D1F804B00BF0EE
:1016A000030C02680CFA07F302EA0A021A431BF45D
:1016B000403F0260A4D0002243F644030192C4F2EA
:1016C00002031A684FF6084C42F480421A601A6806
:1016D000CFF6FF7C02F480420192019A28F00302C7
:1016E000724452F80C3006F00C050F24AC40A343B2
:1016F000009C04FA05F52B4342F80C30DEF8082074
:101700004B6842EA090543F60C4CDC0258BF22EA5A
:101710000905CEF80850C4F2010CDCF800209C0248
:1017200042EA090558BF22EA0905CCF80050DEF864
:1017300004209C0342EA090558BF22EA0905CEF8B5
:101740000450DEF80020DB0342EA090558BF22EA14
:101750000905CEF8005053E702B0BDE8F08F000055
:10176000002A08BF090481617047000043F6583021
:10177000C2F2010000687047002804BF01207047D2
:10178000F0B581B0044690F83D0028B9002084F8F7
:101790003C00204600F07CFA242084F83D002068BC
:1017A000016821F001010160016841F4004101601C
:1017B000016821F40041016000F060FC636848F2B8
:1017C000A16CC0F2010C40F60011C0F23D0163456E
:1017D0003CBF48F28041C0F21E01884202D2012083
:1017E00001B0F0BD4DF68361C4F21B31A0FB0112C4
:1017F0002168970CD1F804E04FF496762EF03F055F
:1018000045EA92454D60774348F638160D6AC0F2B6
:101810004106A7FB067625F03F07634538BF960CC7
:10182000721C3A430A62CA6948F2A0664CF6FF7716
:10183000C0F20106B34222EA07020BD801385B006E
:10184000B0FBF3F001306FF31F30042898BF042081
:101850001BE000BFA768013857B119277B43B0FBD5
:10186000F3F001306FF31F3070B100F5804007E0F6
:1018700003EB4303B0FBF3F001306FF31F3018B1FB
:1018800000F5004001E000BF01201043C861086876
:10189000D4E9072320F0C00010431843086088688B
:1018A00048F2FF3204F10C0790438CCF18431043E9
:1018B000A6698860C86820F0FF0038433043C860DC
:1018C000086840F00100086000202021206484F8AE
:1018D0003D10206384F83E0001B0F0BD2DE9F047D3
:1018E00084B0994616460F460446FFF73FFF94F82A
:1018F0003D10202927D10546206800BF816989074E
:101900001CD5FFF733FF411B20681A29F6D38169E4
:101910008907F3D500202021206384F83D1084F846
:101920003E00206C04F13C0A40F0200020640220BC
:1019300000218AF8001004B0BDE8F087A2461AF82A
:101940003C1F012904D1022004B0BDE8F08700BF8C
:1019500001228AF800200368DDE90D180C9ADB07E4
:1019600003D1036843F001030360036823F40063B9
:101970000360222084F83D00402084F83E000020CF
:10198000206462626185608D394620850020CFF633
:10199000FF70E062204632464B46CDE9008502F0FA
:1019A00029FA18B1012004B0BDE8F087208DA8B154
:1019B00002282BD0012835D121680A6822F48062E0
:1019C0000A60002203924A6903928A690392039A89
:1019D0000A6842F400720A602CE000BF0020039005
:1019E000206841690391816903910399016841F479
:1019F00000710160202084F83D00002084F83E0042
:101A000000218AF8001004B0BDE8F08721680A6858
:101A100022F480620A600A6842F400620A600022CE
:101A2000039202E00021039121684A6903928969C7
:101A3000039103990427C0F201070CE010690870B4
:101A4000606A218D01306062481E2085618D0139F8
:101A500061850104CED080B203280FD802284AD075
:101A600001282DD1204641462A4602F061FC00287B
:101A700098D12068616A0069E1E700BF20464146CD
:101A80002A4602F055FC00287FF48CAF2068616A7A
:101A900000690870606A2268411C208D616201380B
:101AA0002085638D013B638553695B07D1D580B287
:101AB0000328C3D1106820F480601060BEE700BF27
:101AC0002046394600224346009502F0DFFA0028FE
:101AD0007FF468AF2068616A026822F48062026065
:101AE00000690870606A218D01306062481E20859F
:101AF000608D0138608520463946002243460095B6
:101B000002F0C4FA00287FF44DAF2068616A0268D1
:101B100042F40072026000690870606A2268411C29
:101B20006162218D01392185618D013961851169DC
:101B3000417085E72DE9F04383B0994616460F467C
:101B40000446FFF713FE94F83D10202924D10546E2
:101B5000206800BF816989071AD5FFF707FE411B7E
:101B600020681A29F6D381698907F3D5002020213E
:101B7000206384F83D1084F83E00216C41F0200180
:101B8000216484F83C00022003B0BDE8F08300BF6C
:101B900094F83C10012903D1022003B0BDE8F08382
:101BA000012284F83C200368DDE90B180A9ADB0760
:101BB00003D1036843F001030360036823F4006367
:101BC0000360212084F83D00402084F83E0000207E
:101BD000206462626185608D394620850020CFF6E1
:101BE000FF70E062204632464B46CDE9008502F0A8
:101BF0008BF918B1012003B0BDE8F083208D98B9AE
:101C0000204641462A4602F0E3F988B3206C0428B6
:101C1000F0D12068016841F400710160012003B037
:101C2000BDE8F0830004EBD0204641462A4602F08E
:101C3000C7FB0028EAD1616A2268084610F8013B18
:101C40001361238D6062581E2085678D013F678573
:101C500057697F07E6D50704E4D048781061881CEF
:101C60006062981E2085618D01396185DAE700BFC9
:101C70002068016841F400710160202084F83D0073
:101C8000002084F83E0084F83C0003B0BDE8F083F7
:101C9000016845F60000C4F20000814218BF704799
:101CA000B0B586B0002443F630050194C4F20205B5
:101CB000296800F5D63041F002012960296801F059
:101CC0000201019101994FF4406101911221CDE986
:101CD0000214032104910421059101A9FFF770FC6E
:101CE0000094286940F480002861286900F480008D
:101CF0000090009806B0BDE8B040704740F2000088
:101D000043F65831C2F20000C2F2010100780A68BD
:101D1000104408607047000080B543F60040C4F2EC
:101D20000200016841F400710160016841F48061C2
:101D30000160016841F480710160032000F0BCF88B
:101D40000F2000F005F800F05DF8002080BD0000D5
:101D5000B0B586B0002543F644010195C4F20201F6
:101D60000A68044642F001020A60096801A801F00D
:101D7000010101910199694600F060F900F092F9C2
:101D80004DF683614000C4F21B31A0FB01014FF00E
:101D9000FF3000EB914140F688200022C2F20000A3
:101DA000C4F2010240F2E733C0E90021C0E9025366
:101DB0000561856100F022FC054618B1284606B091
:101DC000B0BD00BF40F68820C2F2000000F008FD60
:101DD00005460028F2D1192000F030F80F2C0DD85C
:101DE000192021460022002500F03AF840F20400B4
:101DF000C2F200000460284606B0B0BD01252846A6
:101E000006B0B0BD82B0002043F640010190C4F29C
:101E100002014A6842F480424A604A6802F4804201
:101E20000192019A0090086840F0805008600868AC
:101E300000F080500090009802B07047002848BF22
:101E4000704700F01F01012202FA01F11C2202EA90
:101E5000D0004EF20012CEF2000281507047000016
:101E600010B54EF60C5CCEF2000CDCF80030C3F37B
:101E7000022E8EF00704042C28BF0424BEF10303B5
:101E80004FF0FF3E0EFA04F438BF0023A1439940FF
:101E90000EFA03F39A43114300F00F0200F160437E
:101EA0000901043A03F564436244002848BF02F183
:101EB0000C03197010BD00004EF60C51CEF200015B
:101EC0000A684FF6FF031A4060F30A2242F080606E
:101ED00040F0FD7008607047002804BF0120704783
:101EE0002DE9F04143F60808C4F202080446D8F888
:101EF000F8030D4600F00700884207D288F8F8532F
:101F0000D8F8F80300F00700A84277D120688107CD
:101F100017D5410705D5D8F8001041F4E051C8F8AD
:101F20000010010705D5D8F8001041F46041C8F849
:101F30000010D8F80010A26821F0F0011143C8F891
:101F40000010C00740D1D8F8F80300F00700A842FD
:101F500007D988F8F853D8F8F80300F00700A8422A
:101F60004CD12068410707D5D8F80010E26821F469
:101F7000E0511143C8F80010000708D5D8F8000058
:101F8000216920F4604040EAC100C8F8000000F078
:101F90009DF8D8F800104DF64A02C1F30311C0F6BF
:101FA0000002515C40F2080220FA01F140F2040004
:101FB000C2F200000068C2F200021160FFF7C8FE22
:101FC0000020BDE8F08100BF6068811E022907D2B1
:101FD00058F8081C89015CBF0120BDE8F08111E0C0
:101FE000012807D158F8081C89035CBF0120BDE80F
:101FF000F08107E058F8081C890703D40120BDE8E8
:10200000F08100BFD8F8001021F003010843C8F8A0
:102010000000FFF7ABFB064641F28837D8F8000016
:10202000616800F00C00B0EB810F8CD0FFF79EFBD5
:10203000801BB842F2D90320BDE8F0810F22026074
:1020400043F60802C4F20202136803F0030343607C
:10205000136803F0F0038360136803F4E053C36074
:10206000D2F800C04FF4E05303EADC030361D2F876
:10207000F80300F0070008607047000040F2080015
:1020800043F60801C2F20000C4F2020100680968C8
:102090004DF65A02C1F38221C0F60002515CC840DD
:1020A0007047000040F2080043F60801C2F2000049
:1020B000C4F20201006809684DF65A02C1F34231C8
:1020C000C0F60002515CC8407047000010B543F6EE
:1020D0000404C4F20204606800F00C0142F2004003
:1020E0000829C0F2F40007D0042918BF10BD41F23E
:1020F0000020C0F27A0010BD216801F03F02216883
:1021000023684902C3F3881106D4A1FB0001002310
:10211000FEF7D0F807E000BF41F20020C0F27A00DD
:102120004843B0FBF2F021680222C1F3014102EB07
:102130004101B0FBF1F010BD002804BF0120704741
:102140002DE9F04182B00446007843F60006C0074E
:10215000C4F202060CD0B06800F00C00042840F075
:1021600081803068800303D56068002800F06A81B0
:10217000207880071BD5B06810F00C0F09D0B0682C
:1021800000F00C00082840F087807068400200F1E1
:1021900083803068800703D5E068012840F05281D1
:1021A0003068216920F0F80040EAC10030602078F2
:1021B000000713D4207840072AD4A569002D00F029
:1021C0003C81B06800F00C00082840F0A180012D8F
:1021D00040F01081012002B0BDE8F0816069002864
:1021E00040F20000C4F2472000F07E800121C0F8D8
:1021F000801EFFF7BBFA0546706F8007DAD4FFF741
:10220000B5FA401B0228F7D9032002B0BDE8F081DF
:10221000306C5FEAC0080AD400200190306C40F0B6
:1022200080503064306C00F080500190019847F28B
:102230000007C4F200073868C00547D4386840F486
:1022400080703860FFF792FA054600BF3868C00515
:102250003CD4FFF78BFA401B0228F7D9032002B0C9
:10226000BDE8F081B06800F00C00082803D1706868
:1022700040023FF576AF6068B0F5803F07D0B0F51B
:10228000A02F40F09B80306840F4802030603068A0
:1022900040F4803030609BE0E06800285CD0002093
:1022A000C4F2472001210160FFF760FA054600BF34
:1022B000306880073FF574AFFFF758FA401B0228DB
:1022C000F6D9032002B0BDE8F08100BFA068012864
:1022D00005D0052854D1306F40F004003067306FCE
:1022E00040F00100306755E00021C0F8801EFFF784
:1022F0003DFA0546706F80077FF55CAFFFF736FA51
:10230000401B0228F6D9032002B0BDE8F08100BFCF
:102310000027C4F2472700203866FFF727FA022D6E
:1023200005460DD13068800140F19080FFF71EFA1C
:10233000401B02284FF00300F4D902B0BDE8F08141
:102340003068800179D5FFF711FA401B02284FF061
:102350000300F5D9F1E700BF0020C4F247200021B7
:102360000160FFF703FA0546306880077FF51FAF6D
:10237000FFF7FCF9401B02284FF00300F4D9DCE71B
:10238000316F002821F001013167316F21F0040124
:1023900031677DD0FFF7EAF9054641F2883700BF83
:1023A000306F800700F18680FFF7E0F9401BB842EC
:1023B000F6D9032002B0BDE8F08100BF31680028E3
:1023C00021F480313160316821F4802131607BD08B
:1023D000FFF7CCF9054600BF306880033FF5C8AE73
:1023E000FFF7C4F9401B6428F6D9032002B0BDE80A
:1023F000F08100BF7068E16900F480028A4221D157
:10240000216A00F03F028A421CD147F6C071626A1D
:102410000140B1EB821F15D1A16A4FF6FF73C903CA
:10242000994300F44032A1F580318A420AD1E16A31
:1024300000F07060B0EB016F04D1002002B0BDE885
:10244000F08100BF012002B0BDE8F08104F11C055D
:102450002FCD084340EA8210D9034FF6FF72914313
:10246000A1F5803140EA05600843706001203866BC
:10247000FFF77CF9044600BF30688001DDD4FFF728
:1024800075F9001B02284FF00300F5D955E700BF8E
:10249000FFF76CF9054641F2883700BF306F8007BF
:1024A00008D5FFF763F9401BB8424FF00300F5D998
:1024B00043E700BFB8F1000F3FF57FAE306C20F06E
:1024C0008050306479E600BFFFF750F9054600BF41
:1024D000306880037FF54CAEFFF748F9401B642855
:1024E0004FF00300F4D928E7704700007047000060
:1024F00090F83C20012A04BF02207047B0B501F1DA
:1025000008053CCDD1E900CE23F47C5322F470526F
:102510001A432EF4F0431A432CF4E0431A4324F4F4
:10252000C0431A432A43C96922F480420368114315
:102530005964002180F83C10BDE8B040084670475F
:1025400090F83C20012A4FF0020254D010B580F8D8
:102550003D200268D2F804E0D2F808C00C682EF0E2
:102560007003234341F2FF74C4F20004A24253609B
:102570000EDC40F2FF73C4F200039A4216DCB2F1A3
:10258000804F2BD040F20043C4F2000324E000BF90
:1025900040F2FF33C4F201039A4213DC41F6000318
:1025A000C4F200039A4219D0002313E040F600035E
:1025B000C4F200039A4211D040F60043C4F2000373
:1025C0000AE000BF44F20003C4F201039A4205D0BE
:1025D00040F20043C4F201039A4204D149682CF04E
:1025E0008003194391600121002280F83D1080F89A
:1025F0003C20BDE81040104670470000002804BF92
:102600000120704710B5044690F83D0028B900201D
:1026100084F83C00204600F01FF8022084F83D00BA
:102620002068211D03F0E0FC012084F8460084F8B6
:102630003E0084F83F0084F8400084F8410084F8AC
:10264000420084F8430084F8440084F8450084F88C
:102650003D00002010BD000080B582B0006841F24E
:10266000FF71C4F2000188422CDD44F2FF31C4F254
:102670000101884252DC41F60001C4F200018842A7
:1026800066D040F20041C4F20101884240F0A580CA
:102690000020019043F64000C4F20200416800228D
:1026A00041F0020141604068002100F00200019009
:1026B00001982D20FFF7D4FB2D2002B0BDE880400B
:1026C000FFF7BCBB40F60001C4F2000188424DD0C8
:1026D00041F20001C4F2000188426FD041F2004192
:1026E000C4F20001884278D10020019043F64000F6
:1026F000C4F202000168002241F02001016000687C
:10270000022100F02000019001983720FFF7A8FB7C
:10271000372002B0BDE88040FFF790BB44F2004193
:10272000C4F2010188422FD044F60001C4F2010135
:10273000884252D10020019043F64000C4F20200CA
:10274000416841F480214160406800F4802042E00B
:102750000020019043F64000C4F20200016841F0FD
:1027600040010160006800F0400034E0002001906A
:1027700043F64000C4F20200016841F00401016028
:10278000006800F0040026E00020019043F64000BD
:10279000C4F202004168002241F400314160406807
:1027A0000F2100F40030019001981920FFF758FB29
:1027B000192002B0BDE88040FFF740BB0020019027
:1027C00043F64000C4F20200016841F010010160CC
:1027D000006800F010000190019802B080BD000078
:1027E00090F83D1001291CBF01207047022180F89C
:1027F0003D10006841F2FF72C168C4F200029042CD
:1028000041F00101C1600DDC40F2FF71C4F2000132
:10281000884215DCB0F1804F2AD040F20041C4F26A
:10282000000123E040F2FF31C4F20101884213DCD1
:1028300041F60001C4F20001884219D0002113E0E2
:1028400040F60001C4F20001884211D040F6004178
:10285000C4F200010AE000BF44F20001C4F2010129
:10286000884205D040F20041C4F20101884206D1FD
:10287000816801F00701062904BF00207047016844
:1028800041F00101016000207047000090F83C20F9
:10289000012A4FF0020200F0C58080B580F83D208B
:1028A000D0F800C04FF67772DCF8083023EA020255
:1028B000CCF808200B684F2B28DC1F2B44DD202B85
:1028C00045D0302B43D0402B40F0AE80D1F804E00F
:1028D000C968DCF82030DCF8202022F00102CCF8B6
:1028E0002020DCF8182022F0F00242EA011123F047
:1028F0000A0242EA0E02CCF81810CCF82020DCF8CC
:10290000081041F0470121F0300180E06F2B27DDF6
:10291000B3F5005F48D0B3F5805F7AD0702B40F0FC
:102920008380D1E901E3C968DCF8082043EA0E039B
:1029300022F47F4243EA01211143CCF80810DCF86D
:10294000081041F0770162E00BB1102B6CD1DCF87C
:10295000081021F07001194341F0070157E000BF52
:10296000502B35D0602B5FD1D1F804E0C968DCF87A
:102970002030DCF8202022F01002CCF82020DCF8F7
:10298000182022F4704242EA013123F0A00242EA08
:102990000E12CCF81810CCF82020DCF8081041F00A
:1029A000670121F0100132E0D1E901E3C968DCF8E8
:1029B000082043EA0E0322F47F4243EA0121114337
:1029C000CCF80810DCF8081041F480411FE000BF8B
:1029D000D1F804E0C968DCF82030DCF8202022F0CF
:1029E0000102CCF82020DCF8182022F0F00242EAA4
:1029F000011123F00A0242EA0E02CCF81810CCF8BA
:102A00002020DCF8081041F0570121F02001CCF81B
:102A100008100022012180F83D10002180F83C10B0
:102A2000BDE88040104670470122F3E7002804BF4C
:102A3000012070472DE9F047044690F83D000D460F
:102A400028B9002084F83C00204600F049F8022014
:102A500084F83D00206844F2070281689143816058
:102A6000211D03F0C1FA20684FF6FF788168826962
:102A7000D0F820C0D5E9003ED5E9026A43EA010951
:102A8000AB6922EA080246EA03234FF6FC46B34349
:102A9000D5E9076742EA0A0229691A4342EA06228F
:102AA00042EA01112CF0AA026B6942EA0E0241EAE5
:102AB000073142EA0312C0F80890816102620120E6
:102AC00084F8460084F83E0084F83F0084F8420011
:102AD00084F8430084F83D000020BDE8F087000042
:102AE0002DE9F04186B0006840F20042C4F20002D5
:102AF00000219042CDE90411CDE90211019149D0A4
:102B0000B0F1804F76D1002043F630010090C4F23E
:102B100002010A6940F2004442F001020A610A69B6
:102B2000C4F2020402F001020092009A00900A68C6
:102B300001AD42F001020A600A684FF0020802F09B
:102B400001020092009A00900868012740F00200FC
:102B500008600868032600F00200009000984FF417
:102B600000400190A4F580602946CDF808800397C5
:102B7000CDE90467FEF724FD0820CDE901082046D1
:102B80002946CDE903760597FEF71AFD06B0BDE8A4
:102B9000F08100BF43F630000091C4F202000269E8
:102BA00042F002020261026902F002020092009AFF
:102BB0000091016841F0020101600068012100F00C
:102BC0000200009000983020019002200391032120
:102BD0000290CDE9041040F20040C4F2020001A9C5
:102BE000FEF7EEFC1D2000210022FFF739F91D2021
:102BF000FFF724F906B0BDE8F081000080B590F839
:102C00003E2090F83F3090F842E090F843C004290D
:102C10000AD0B9B9012A4FF0010208BFBEF1010F75
:102C200034D0104680BD00BF012B4FF0010208BF19
:102C3000BCF1010FF5D1022180F83F1080F843105C
:102C400000681EE0012A4FF0010208BF012BE8D105
:102C5000BEF1010FE5D1BCF1010FE2D1022280F8F3
:102C60003E2080F83F2080F8422080F8432091B138
:102C70000068016A21F001010162016A41F001016D
:102C8000016210216FF0100209E000BF022180F8FC
:102C90003E1080F84210006801216FF00102036AC3
:102CA0001A400262026A114301620168002241F087
:102CB00001010160104680BD7047000070B50446F8
:102CC0000068C5680669B10716D515F0020113D072
:102CD0006FF002010161012121778069800703D033
:102CE0002046FFF7E9FF05E0204600F041F92046C5
:102CF00000F09AFA00202077700719D515F004002B
:102D000016D020686FF004010161022121778069EB
:102D100010F4407F04D02046FFF7CEFF06E000BF4E
:102D2000204600F025F9204600F07EFA00202077AA
:102D3000300717D515F0080014D020686FF008018F
:102D4000016104212177C069800703D02046FFF785
:102D5000B3FF05E0204600F00BF9204600F064FACE
:102D600000202077F00619D515F0100016D0206845
:102D70006FF01001016108212177C06910F4407FD4
:102D800004D02046FFF798FF06E000BF204600F081
:102D9000EFF8204600F048FA00202077F00718BF2F
:102DA00015F0010002D1300609D412E020686FF05E
:102DB00001010161204600F0C9FA300609D515F07D
:102DC000800006D020686FF0800101612046FFF787
:102DD0008BFB700609D515F0400006D020686FF017
:102DE00040010161204600F0F9FAB00658BF70BDFD
:102DF00015F0200008D021686FF0200220460A61FB
:102E0000BDE87040FFF772BB70BD000080B586B0B2
:102E1000006843F6FF71C4F2010188424FF00001DF
:102E20000591CDE90311CDE9011125DD44F2000141
:102E3000C4F20101884245D044F20041C4F20101CC
:102E4000884259D044F60001C4F20101884240F0A2
:102E50008D800020009043F63000C4F2020001682B
:102E600041F002010160006800F00200009000984B
:102E70004FF4007051E000BF40F60001C4F20001C1
:102E8000884251D040F20041C4F2010188426DD124
:102E90000020009043F63000C4F20200016841F0C7
:102EA000040101600068032100F004000090009814
:102EB0004020019040F20040C4F2020000F5806022
:102EC0004BE000BF0020009043F63000C4F2020047
:102ED000016841F0100101600068032100F010005A
:102EE000009000986020019040F20040C4F202007F
:102EF00000F5406031E000BF0020009043F6300054
:102F0000C4F20200016841F002010160006800F0B3
:102F10000200009000984FF48070019040F2004051
:102F20000321C4F2020018E00020009043F63000B4
:102F3000C4F20200016841F008010160006802214A
:102F400000F00800009000984FF40040019040F21B
:102F50000040C4F2020000F500600222029200224A
:102F6000059101A9CDE90322FEF72AFB06B080BD39
:102F70007047000090F83C30012B04BF02207047DE
:102F80004FEAB202032A00F201812DE9F043DFE8A3
:102F900002F0033F7FBF00BF036840F200461C6A97
:102FA0001A6A24F0020422F001021A621A46D3F8C7
:102FB00004C052F818EF8F6843F48065C4F201062C
:102FC000B54244EA070405D1CF6824F00C0427F089
:102FD00004073C430F68B54206D1D1E905582CF4EB
:102FE00040762E4346EA080C2EF073063743C3F8AA
:102FF00004C09F614F6809695F631C629F6947F065
:1030000008079F619F6927F004079F61B2E000BF36
:10301000036840F200481C6A1A6A24F0200422F077
:1030200010021A621A46D3F804C052F818EF8F68DB
:1030300043F48065C4F20108454544EA071407D10A
:10304000CF686FF0400624F0C00406EA0716344348
:10305000D1F80090454506D1D1E905562CF44067DA
:103060002E4347EA860C2EF4E64747EA0927C3F8C1
:1030700004C09F614F6809699F631C629F6947F4A0
:1030800000679F619F6927F480679F6171E000BFBF
:10309000036840F200481C6A1A6A24F4007422F49F
:1030A00080721A621A46D3F804C052F81CEF8F6877
:1030B00043F48065C4F20108454544EA072408D179
:1030C000CF6840F2FF463F0224F4406427EA060638
:1030D0003443D1F80090454506D1D1E905562CF48A
:1030E00040572E4347EA061C2EF0730747EA0907AC
:1030F000C3F804C0DF614F680969DF631C62DF69E0
:1031000047F00807DF61DF6927F00407DF6131E07E
:10311000036840F20045D3F820C01A6A43F4806780
:1031200022F480521A621A465C6852F81CEFD1F8F9
:1031300000808E68C4F20105AF4204D14D6924F4C9
:10314000804444EA85142CF4005747EA06372EF4ED
:10315000E64646EA08265C60DE614E6809691E6440
:103160001F62DF6947F40067DF61DF6927F480676A
:10317000DF6109021368194311600021BDE8F043C3
:10318000002280F83C200846704700BF0121002241
:1031900080F83C2008467047002804BF0120704793
:1031A00010B5044690F83D0028B9002084F83C0092
:1031B000204600F01FF8022084F83D002068211D01
:1031C00002F012FF012084F8460084F83E0084F8E3
:1031D0003F0084F8400084F8410084F8420084F8FD
:1031E000430084F8440084F8450084F83D00002042
:1031F00010BD0000006844F20001C4F201018842E1
:1032000018BF704781B00020009043F64400C4F21C
:103210000200016841F480310160006800F48030F0
:103220000090009801B070477047000041B1082934
:1032300010D0042914BF00F1410200F13F020BE05D
:1032400090F83E20012A1CBF01207047022280F81E
:103250003E2013E000F140021278012A1CBF012039
:1032600070470222082907D0042914BF80F84120A2
:1032700080F83F2002E000BF80F84020006801F0A5
:103280001F010122036A02FA01F123EA010202622C
:10329000026A114341F2FF72C4F2000290420162DD
:1032A00010DC40F2FF71C4F2000188421CDCB0F176
:1032B000804F3FD040F20041C4F20001884239D033
:1032C0003DE000BF40F2FF31C4F20101884219DC49
:1032D00041F60001C4F2000188422BD00021C4F263
:1032E000010188421AD02AE040F60001C4F2000130
:1032F00088421FD040F60041C4F20001884219D034
:103300001DE000BF44F20001C4F20101884211D067
:1033100040F20041C4F20101884210D1416C40F2F8
:10332000004340F48062C4F2010341F400419A4238
:10333000416404D1816801F00701062903D00168C6
:1033400041F00101016000207047000040F6C841D3
:10335000C2F20001884238D12421C4F200010023C6
:103360000A680B60D1F800C4C1F80034642111FB75
:1033700002F100EE101A40F2E801C2F2000191EDF4
:10338000001A40F2E401C2F2000191ED002A6FF050
:103390006301B8EEC00A11FB0CF121EE000A03EE46
:1033A000101A80EE020AB8EEC33A21EE031A81EE3B
:1033B000021A40F23851C2F2000181ED000A40F2D7
:1033C0004C51C2F2000181ED001A00680021C4F2E4
:1033D0000101884218BF7047FEF790BC704700009B
:1033E0007047000070470000B0B582B00446006826
:1033F0000168C368426901F02F05202D03F0200504
:1034000006D12DB1204602B0BDE8B04002F07EBF2B
:103410005FEA017C1EBF02F0010E03F4907212EB12
:103420000E0243D1226BCD0618D5012A16D113F016
:10343000100213D0002101910168019141680191AE
:103440000199406940063BD4A08DE18DE28D002AB0
:1034500018BF884240F0F28102B0B0BD0A0640F1C8
:10346000E78013F0800200F0E38094F841102129F6
:10347000F2D1A168B1F5805F03D12169002900F084
:103480006382216A4A1C226209784160E18C013919
:103490000A04E184E0D1C16821F08001C160C16803
:1034A00041F04001C16002B0B0BD00BFCA0718BF03
:1034B00013F4807240F0D0804A0700F1D380D8E046
:1034C000E06B016849688AB2002AC5D0A38D9A4290
:1034D000C2D2E185C069B0F5807F00F09D80206890
:1034E00050E8030F216820F4807041E80302DAB14C
:1034F000206850E8030F216820F4807041E803023F
:1035000092B1206850E8030F216820F4807041E8F0
:1035100003024AB1206850E8030F216820F480704C
:1035200041E80302002ADAD1206850E8050F21683B
:1035300020F0010041E80502BAB3206850E8050F09
:10354000216820F0010041E8050272B3206850E8CC
:10355000050F216820F0010041E805022AB3206828
:1035600050E8050F216820F0010041E80502002A1B
:10357000DAD11AE0206850E8050F216820F04000F9
:1035800041E80502DAB1206850E8050F216820F013
:10359000400041E8050292B1206850E8050F21681B
:1035A00020F0400041E805024AB1206850E8050FCC
:1035B000216820F0400041E80502002ADAD12020ED
:1035C00084F8420000202063206850E8030F21683F
:1035D00020F0100041E80302DAB1206850E8030F40
:1035E000216820F0100041E8030292B1206850E801
:1035F000030F216820F0100041E803024AB120685F
:1036000050E8030F216820F0100041E80302002A6F
:10361000DAD1E06BFDF7D4FD02206063A08DE18D6F
:10362000401A81B2204602B0BDE8B040FFF7D8BED4
:1036300049067FF511AF13F040013FF40DAFC168AB
:1036400021F04001C1602021204684F8411002B0E1
:10365000BDE8B04000F0CABB626C42F00102626497
:103660004A0706D5BEF1000F03D0626C42F0020299
:1036700062648A0706D5BEF1000F03D0626C42F087
:1036800004026264BCF1000F06D55EEA050203D0B5
:10369000626C42F008026264626C002A3FF4DCAEA5
:1036A000890604D51DB1204602F030FE206840692D
:1036B000616C00F0400001F00801401800F0B68095
:1036C000206850E8030F216820F4907041E803025D
:1036D000BAB3206850E8030F216820F4907041E8E5
:1036E000030272B3206850E8030F216820F4907041
:1036F00041E803022AB3206850E8030F216820F450
:10370000907041E80302002ADAD11AE0206850E8FC
:10371000050F216820F0010041E80502DAB12068B8
:1037200050E8050F216820F0010041E8050292B140
:10373000206850E8050F216820F0010041E80502EB
:103740004AB1206850E8050F216820F0010041E8E7
:103750000502002ADAD1206B012824D1206850E824
:10376000030F216820F0100041E80302DAB120685D
:1037700050E8030F216820F0100041E8030292B1E5
:10378000206850E8030F216820F0100041E8030290
:103790004AB1206850E8030F216820F0100041E88A
:1037A0000302002ADAD1202084F84200002020639E
:1037B00020684069400640F1C180206850E8050F4C
:1037C000216820F0400041E80502DAB1206850E8A5
:1037D000050F216820F0400041E8050292B1206801
:1037E00050E8050F216820F0400041E805024AB189
:1037F000206850E8050F216820F0400041E80502EC
:10380000002ADAD1E06B002800F0988046F20131FE
:10381000C0F600010165FDF71BFD00283FF41CAE5A
:10382000E06B016D02B0BDE8B04008472046FFF7ED
:10383000D9FD0020606402B0B0BD00BF401A00BFD7
:10384000216851E8031F226821F4907142E80313B4
:10385000BBB3216851E8031F226821F4907142E84C
:10386000031373B3216851E8031F226821F4907198
:1038700042E803132BB3216851E8031F226821F4A7
:10388000907142E80313002BDAD11AE0216851E865
:10389000051F226821F0010142E80513DBB1216810
:1038A00051E8051F226821F0010142E8051393B198
:1038B000216851E8051F226821F0010142E8051343
:1038C0004BB1216851E8051F226821F0010142E84F
:1038D0000513002BDAD1202184F842100021216346
:1038E000216851E8031F226821F0100142E8031308
:1038F000DBB1216851E8031F226821F0100142E882
:10390000031393B1216851E8031F226821F01001CD
:1039100042E803134BB1216851E8031F226821F0EC
:10392000100142E80313002BDAD1022281B22046B3
:10393000626302B0BDE8B040FFF752BD204602B05E
:10394000BDE8B040FFF74EBD216A31F8022B6FF39E
:103950005F224260216299E5002804BF0120704780
:1039600010B5044690F8410028B9002084F84000C2
:10397000204600F021F8242084F841002068C16826
:1039800021F40051C160204602F040FD2068016929
:1039900021F490410161416921F02A014161C1682E
:1039A00041F40051C16000202021606484F841107E
:1039B00084F84210606310BD2DE9F04387B00446DF
:1039C000006844F20041C4F2000100268842CDE9BB
:1039D0000566CDE90366029652D044F60001C4F2B2
:1039E0000001884200F0B28045F20001C4F20001FB
:1039F000884240F0DE8043F630000196C4F20200B7
:103A0000016940F6004441F4801101610169C4F28A
:103A1000020401F48011019101990196016802AD3F
:103A200041F00401016001684FF0020801F0040157
:103A300001910199019601684FF0030941F00801D5
:103A400001600068082700F00800019001984FF419
:103A500080500290A4F580602946CDE90386CDF818
:103A600014900697FDF7ACFD0420CDE9020820462E
:103A70002946CDE904690697FDF7A2FD352490E0BB
:103A800043F630000196C4F20200016946F288084C
:103A900041F4003101610169C4F2020801F400310E
:103AA000019101990196016841F0080101600068E7
:103AB00002A900F008000190019860200290022005
:103AC000CDE90306032005900720069040F600404C
:103AD000C4F20200FDF774FD40F67415C2F2000551
:103AE0004FF000674FF480692846C5E90087C5E9B3
:103AF0000266C5E90496C5E90666C5E90866FDF7EC
:103B000099FC002818BFFDF757FBE563AC6340F64E
:103B1000D41508F11800C2F200054021C5E90007DC
:103B200005F10800002280E806022846C5E90522C2
:103B3000C5E907226A62FDF77DFC002818BFFDF782
:103B40003BFBA563AC6326242BE000BF002043F6BB
:103B500030010190C4F202010A6942F480220A6134
:103B60000A6902F480220192019A01900A6842F0E7
:103B700008020A60096801F00801019101994FF4F7
:103B8000407102910221CDE9031003200590072026
:103B9000069040F60040C4F2020002A9FDF710FDB5
:103BA0002724204600210022FEF75AF92046FEF77E
:103BB00045F907B0BDE8F08390F84230202B07D1DB
:103BC00000294FF0010318BF002A05D1184670479D
:103BD00002231846704700BF00230363816222213D
:103BE0008285C285436480F842100169006819B17A
:103BF000C16841F48071C160416941F001014161D6
:103C0000C16841F02001C16018467047006845F264
:103C10000001C4F20001884218BF704740F2A80CAE
:103C2000C2F2000C9CF80010C9B940F66811C2F24B
:103C300000010A7840F65471C2F200010B7840F698
:103C4000DC60C2F20000C2540878013008700878C5
:103C5000782804D301208CF800000020087040F67A
:103C6000306040F66811C2F20000C2F20001012289
:103C7000FFF7A2BF2DE9F041044690F8410020284B
:103C80001CBF0220BDE8F0810D4600294FF0010065
:103C900000F0AA801646002A08BFBDE8F081002087
:103CA00060642120984684F84100FDF75FFDA684FA
:103CB000E684A1680646B1F5805F02D1206900283C
:103CC00062D02F460025E08C002861D018F1010059
:103CD00018D0B8F1000F37D1216808E017F8010BB0
:103CE0004860E08C0138E084E08C002851D00868FE
:103CF000000673D5002FF1D135F8020B00276FF3C2
:103D00005F20EDE7216802E00868000609D4086832
:103D1000000606D4086800065CBF08685FEA006019
:103D2000F2D51FB117F8010B05E000BF35F8020B03
:103D300000276FF35F204860E08C0138E084E08C5E
:103D40000028E4D125E000BF216800BF0868000614
:103D500008D4FDF70BFD801B404541D82168C86899
:103D6000F4E700BF17B117F8010B04E035F8020BB8
:103D700000276FF35F204860E08C0138E084E08C1E
:103D80000028E3D105E000BF0027E08C00289DD18A
:103D90002168086840061FD4B8F1000F1ED018F142
:103DA00001000FD10868400616D40868400613D4F5
:103DB0000868400610D4086840064FF00000F1D5AE
:103DC0000FE000BFFDF7D2FC801B404508D82068FB
:103DD000C16800684006F5D5002002E0FDF7C6FC8A
:103DE0000320202184F84110BDE8F08170470000D5
:103DF000FEE700002DE9F04782B0044600689A46CD
:103E00000B9D0A9E0368914643F48062026002683B
:103E10000F4642F48071016020464FF001110022EC
:103E20003346009500F032F950B120680068C005B3
:103E300044BF4FF400702064032002B0BDE8F08757
:103E400040F202082068C0F2010807F0FE0707618F
:103E50002046414632462B4600F0FEF920B10120B3
:103E600002B0BDE8F08700BF0020019020682A461C
:103E7000416901918069314601900198204600F026
:103E80009FFAB0B92068BAF1010F09D04FEA1921A1
:103E90000161204631462A4600F092FA48B920686E
:103EA0005FFA89F10161204631462A4600F088FA1E
:103EB00060B1206C0428D2D12068016841F40071FF
:103EC0000160012002B0BDE8F08700BF2068002239
:103ED0000168334641F48071016020464FF00111C2
:103EE000009500F0D3F800289FD147F0010C276817
:103EF0002046414632462B46C7F810C002B0BDE806
:103F0000F04700F0A9B900002DE9F04383B0044662
:103F100000680D4601680A9F0B9E41F48071994626
:103F20009046016020464FF0011100223B4600966A
:103F300000F0ACF850B120680068C00544BF4FF4F1
:103F400000702064032003B0BDE8F083206805F012
:103F5000FE0101610221C0F2010120463A463346CA
:103F600000F07AF920B1012003B0BDE8F08300BF72
:103F700000200290206832464169029180693946EA
:103F800002900298204600F01BFA58B1206C0428D9
:103F9000E9D12068016841F400710160012003B09B
:103FA000BDE8F0832068B9F1010F0AD04FEA18216B
:103FB000016120463946324600F002FA0028E5D178
:103FC00020685FFA88F10161002003B0BDE8F0834A
:103FD00070B50368044653F8140F400711D40E4619
:103FE000481C29D086BB00BF1868400527D4FDF7C0
:103FF000BDFB236853F8140F400737D518684007F6
:10400000F2D5002070BD00BF18684007F9D41868C9
:10401000400514D418684007F3D4186840050ED43E
:1040200018684007EDD41868400508D418684007A0
:104030004FF0000048BF70BD18684005E4D56FF42C
:1040400080601860042012E0154603E053F8140F56
:104050004007D6D418684005F1D4FDF787FB401B14
:104060002368B042F2D958694007EFD420200021DC
:104070002022216384F83D2084F83E10226C1043F6
:104080002064012084F83C1070BD00002DE9F0414F
:10409000054600681E46144601F47F0201338FB2C4
:1040A00042D0DDF81880B2F5803F40F0878040694B
:1040B0003840C01BB0FA80F04009A04240F0C880F0
:1040C0004EB924E040693840C01BB0FA80F0400986
:1040D000A04240F0BD80FDF749FBA0EB0801286835
:1040E000B142EFD941693940C91BB1FA81F149099F
:1040F000A142E7D19BE000BF40693840C01BB0FA45
:1041000080F04009A0424FF0000040F0A280FDF78F
:104110002DFB286841693940C91BB1FA81F1490971
:10412000A142E9D183E000BFB2F5803F24D100BFB6
:1041300041693940C91BB1FA81F14909A14240F0F6
:10414000878041693940C91BB1FA81F14909A1420F
:1041500040F07E8041693940C91BB1FA81F14909BB
:10416000A14275D141693940C91BB1FA81F14909B0
:10417000A142DDD06CE000BF81693940C91BB1FAB2
:1041800081F14909A14263D181693940C91BB1FA62
:1041900081F14909A1425BD181693940C91BB1FA5A
:1041A00081F14909A14253D181693940C91BB1FA52
:1041B00081F14909A142DFD04AE000BF806938405F
:1041C000C01BB0FA80F04009A04241D146B923E0BB
:1041D00080693840C01BB0FA80F04009A04237D156
:1041E000FDF7C4FAA0EB08012868B142F0D9816953
:1041F0003940C91BB1FA81F14909A142E8D116E061
:1042000080693840C01BB0FA80F04009A0424FF0EE
:10421000000018BFBDE8F081FDF7A8FA28688169A1
:104220003940C91BB1FA81F14909A142E8D1002006
:104230002021286385F83D1085F83E00296C41F067
:104240002001296485F83C000120BDE8F08100BF11
:104250000020BDE8F0810000F0B581B004460068A0
:104260001D4643698FB203EA0701B94202D100201B
:1042700001B0F0BD4169164601323FD049053FD437
:10428000CEB100BFFDF772FA411B2068B14203D9DD
:1042900041693940B94215D141693940B942E6D046
:1042A00041694905EED52BE041693940B942DED07C
:1042B0004169490524D4FDF759FA2068416939401C
:1042C000B942F1D0202023E041693940B942CED033
:1042D0004169490514D441693940B942C7D041699F
:1042E00049050DD441693940B942C0D041694905F9
:1042F00006D441693940B942B9D041694905E3D58D
:10430000016841F4007101606FF480614161042033
:1043100000212022216384F83D2084F83E10226C85
:104320001043206484F83C10012001B0F0BD00006F
:1043300070B504460068154650F8143F5A063DD43F
:104340000E4629B926E000BF50F8141F490635D49F
:104350000168C90621D4FDF709FA411B2068B14262
:10436000F2D941694906EFD400202021206384F866
:104370003D1084F83E00206C40F0200018E000BFA3
:10438000FDF7F4F9206850F8141F4906ECD50168D0
:10439000490613D40168C906F2D56FF01001016017
:1043A00000202021206384F83D1084F83E00206C1A
:1043B0002064002084F83C00012070BD002070BD06
:1043C00070B50368044653F8140F000611D40E4666
:1043D000481C29D086BB00BF1868400527D4FDF7CC
:1043E000C5F9236853F8140F000637D5186800067E
:1043F000F2D5002070BD00BF18680006F9D4186817
:10440000400514D418680006F3D4186840050ED48B
:1044100018680006EDD41868400508D4186800062E
:104420004FF0000048BF70BD18684005E4D56FF438
:1044300080601860042012E0154603E053F8140F62
:104440000006D6D418684005F1D4FDF78FF9401B5B
:104450002368B042F2D958690006EFD42020002129
:104460002022216384F83D2084F83E10226C104302
:104470002064012084F83C1070BD000040F2100060
:10448000C2F2000040F2D40190ED001AC2F2000125
:1044900040F20C0091ED013AC2F2000030EEC00A89
:1044A00090ED004A30EE433A91ED002A20EE044AA6
:1044B00021EE031A31EE041A9FED0E3A32EE011A84
:1044C0009FED0D2AB4EE431AF1EE10FAC8BFB0EE1C
:1044D000431AB4EE421AF1EE10FAB8BFB0EE421A27
:1044E00081ED001ABDEEC11A11EE100A81ED010A2C
:1044F000704700BF00408346004083C640F2100072
:10450000C2F2000040F2D40190ED001AC2F20001A4
:1045100040F20C0091ED033AC2F2000030EEC00A06
:1045200090ED004A30EE433A91ED022A20EE044A23
:1045300021EE031A31EE041A9FED0E3A32EE011A03
:104540009FED0D2AB4EE431AF1EE10FAC8BFB0EE9B
:10455000431AB4EE421AF1EE10FAB8BFB0EE421AA6
:1045600081ED021ABDEEC11A11EE100A81ED030AA7
:10457000704700BF00408346004083C680B582B0CC
:1045800001A803F09DF918B14FF0FF3002B080BDD3
:10459000782004F093FC18B16FF0010002B080BDE8
:1045A000782003F0D3F818B16FF0020002B080BD9C
:1045B000642004F003FC18B16FF0030002B080BD6A
:1045C00002F0DAFB20B16FF0040002B080BD00BF42
:1045D00003F028F802F0E6FC20B16FF0050002B00D
:1045E00080BD00BF40F2731002F076FA20B16FF088
:1045F000060002B080BD00BF642002F02BFC18B1A1
:104600006FF0070002B080BD05F01AFC20B16FF01A
:10461000080002B080BD00BF012004F0D5FA0028D8
:1046200018BF6FF0090002B080BD000080B582B0F5
:104630000020019043F63000C4F20200016800221D
:1046400041F4001101600068002100F400100190A5
:1046500001981020FDF704FC1020FDF7EFFB11205E
:1046600000210022FDF7FCFB112002B0BDE88040D4
:10467000FDF7E4BB2DE9F04387B0002743F6300097
:1046800006970197C4F20200016840F6004541F028
:10469000100101600168C4F2020501F010010191EE
:1046A000019901970168002241F0800101600168D1
:1046B00001F08001019101990197016841F0020127
:1046C0000160016801F002010191019901970168FF
:1046D00041F008010160016801F0080101910199B0
:1046E0000197016841F004010160016801F00401D3
:1046F000019101990197016841F001010160006891
:104700004FF4F04100F00100019001982846FDF7B8
:1047100027F8A5F5406420464FF4805101224FF45C
:1047200080580126FDF71CF84FF4C05002A90DF186
:104730000809C1C1284649460597FCF741FF4FF4D7
:10474000C040CDE90206032005902846494604965C
:10475000FCF736FF0220059020464946CDE9028647
:104760000497FCF72DFF07B0BDE8F08380B540F655
:10477000342045F60001C2F20000C4F2000148F204
:10478000A06200234FF4804CC0F2010280E80E00CA
:10479000C0E9033CC0E90533C0E90733FCF7ECFF8F
:1047A000002808BF80BDBDE88040FCF705BD0000C3
:1047B00080B588B040F6D02044F200420021C2F219
:1047C0000000C4F2010244F29F13CDE90611CDE9C5
:1047D0000411C0E90021C0E9021301618161FDF704
:1047E0000DFF002818BFFCF7E7FC40F6D020C2F20E
:1047F0000000FEF7D1FC002818BFFCF7DDFC6020AC
:1048000001900020CDE90200059040F6D020C2F2D0
:10481000000001A90022FEF7ADFB002818BFFCF73D
:10482000CBFC40F6D020C2F20000FEF7EFFA08B051
:1048300080BD000080B588B040F6183044F6000214
:104840000021C2F20000C4F2010244F29F13CDE93C
:104850000611CDE90411C0E90021C0E9021301618C
:104860008161FDF7CBFE002818BFFCF7A5FC40F6E0
:104870001830C2F20000FEF78FFC002818BFFCF7CA
:104880009BFC602001900020CDE90200059040F6DD
:104890001830C2F2000001A90022FEF76BFB0028CD
:1048A00018BFFCF789FC40F61830C2F20000FEF792
:1048B000ADFA08B080BD000080B584B040F660302D
:1048C00041F600020021C2F20000C4F200024FF6DD
:1048D000FF730391CDE90111C0E90021C0E9021382
:1048E00001618161FDF78AFE002818BFFCF764FCB6
:1048F0004FF48050009040F66030C2F200006946EC
:10490000FDF7C4FF002818BFFCF756FC04B080BDBB
:1049100080B58CB040F6A8300021C2F200004FF004
:1049200080424FF0FF33C0E900210322C0E90213A7
:10493000CDE9032101220623CDE900110161816146
:10494000CDE90521CDE90731CDE9092103A90B9373
:10495000FEF76CF8002818BFFCF72EFC40F6A830D4
:10496000C2F200006946FDF7EBFD002818BFFCF716
:1049700023FC0CB080BD000080B58CB040F6F03058
:1049800040F200420021C2F20000C4F20002C0E97D
:10499000002103224FF6FF73CDE903210122CDE967
:1049A0000011C0E9021301618161CDE90521CDE962
:1049B0000711CDE909210B9103A9FEF737F800286B
:1049C00018BFFCF7F9FB40F6F030C2F20000694670
:1049D000FDF7B6FD002818BFFCF7EEFB0CB080BD5C
:1049E00010B58EB040F6384040F600020021C2F209
:1049F0000000C4F20002A72342F20F740D91CDE92A
:104A00000B110991CDE90711CDE90511CDE903118C
:104A1000CDE90111C0E90023C0E9021401618161FF
:104A2000FDF7ECFD002818BFFCF7C6FB4FF48050E3
:104A30000A9040F63840C2F200000AA9FDF726FFAE
:104A4000002818BFFCF7B8FB40F63840C2F200005F
:104A5000FEF7A2FB002818BFFCF7AEFB40F638407B
:104A60000024C2F2000008A9CDE90844FDF768FD62
:104A7000002818BFFCF7A0FB6020CDE9010440F638
:104A80003840C2F2000001A90C2203940594FEF7FD
:104A900071FA002818BFFCF78FFB40F63840C2F2CD
:104AA0000000FEF7B3F90EB010BD000080B582B073
:104AB00040F6804041F200020021C2F20000C4F240
:104AC000000240F2473342F20F7CCDE90011C0E909
:104AD0000023C0E9021C8161FDF790FD002818BF8A
:104AE000FCF76AFB40F68040C2F200006946FDF721
:104AF00027FD002818BFFCF75FFB02B080BD000057
:104B000080B582B040F6C8400021C2F2000041F2F8
:104B1000004242F20F7CCDE90011C4F2000253239F
:104B2000C0E9021C8021C0E900238161FDF766FD18
:104B3000002818BFFCF740FB40F6C840C2F2000056
:104B40006946FDF7FDFC002818BFFCF735FB02B0F5
:104B500080BD000010B596B040F6105040F2004203
:104B60000021C2F20000C4F20102A72342F20F7436
:104B70001591CDE913111191CDE90F11CDE90D1169
:104B8000CDE90B11CDE90911CDE90711CDE90511E9
:104B9000CDE90311CDE90111C0E90023C0E90214F8
:104BA000C0E904118161FDF729FD002818BFFCF759
:104BB00003FB4FF48050129040F61050C2F20000F8
:104BC00012A9FDF763FE002818BFFCF7F5FA40F6BE
:104BD0001050C2F20000FEF7DFFA002818BFFCF701
:104BE000EBFA40F610500024C2F2000010A9CDE903
:104BF0001044FDF7A5FC002818BFFCF7DDFA602083
:104C0000CDE9090440F61050C2F2000009A90022C3
:104C1000CDE90B44CDE90D440F94FEF7ABF9002824
:104C200018BFFCF7C9FA00200590CDE90300CDE9D3
:104C300001004FF40051089040F610500691C2F266
:104C4000000001A9FDF754FC002818BFFCF7B4FAD6
:104C500040F61050C2F20000FEF7D8F816B010BDB2
:104C600010B588B040F6585044F200010024C2F25A
:104C70000000C4F2010144F29F12CDE90644CDE9DF
:104C80000444C0E90014C0E9024204618461FEF7F3
:104C900083FA002818BFFCF78FFA6020CDE90104E1
:104CA00040F65850C2F2000001A900220394059476
:104CB000FEF760F9002818BFFCF77EFA40F658505E
:104CC000C2F2000001A90422FEF754F9002818BF1F
:104CD000FCF772FA40F65850C2F20000FEF796F860
:104CE00008B010BD80B540F6306045F20001C2F258
:104CF0000000C4F2000100234FF00C0C4FF46132AD
:104D000080E80E00C0E90333C0E905C3C361FEF7C4
:104D100023FE002818BFFCF74FFA40F6306040F63B
:104D20006811C2F20000C2F200010122BDE8804019
:104D3000FEF742BF80B540F6A05044F20041C2F2F7
:104D40000000C4F2000100234FF00C0C4FF4E132DC
:104D500080E80E00C0E90333C0E905C3C361FEF774
:104D6000FBFD002808BF80BDBDE88040FCF724BAE9
:104D700080B540F6E85044F60001C2F20000C4F2EB
:104D8000000100234FF00C0C4FF4613280E80E005C
:104D9000C0E90333C0E905C3C361FEF7DDFD0028A8
:104DA00008BF80BDBDE88040FCF706BAFEE7000002
:104DB000FEE700004FF60040CFF6FF7040F2605C67
:104DC000C2F2000C002203460CEB030113F58073C2
:104DD00081F8002481F8082481F8102481F818242F
:104DE00081F8202481F8282481F8302481F838249F
:104DF00081F8402481F8482481F8502481F858240F
:104E000081F8602481F8682481F8702481F878247E
:104E100081F8802481F8882481F8902481F89824EE
:104E200081F8A02481F8A82481F8B02481F8B8245E
:104E300081F8C02481F8C82481F8D02481F8D824CE
:104E400081F8E02481F8E82481F8F02481F8F8243E
:104E5000BAD10022034600BF0CEB030113F58073A7
:104E600081F8012481F8092481F8112481F819249A
:104E700081F8212481F8292481F8312481F839240A
:104E800081F8412481F8492481F8512481F859247A
:104E900081F8612481F8692481F8712481F87924EA
:104EA00081F8812481F8892481F8912481F899245A
:104EB00081F8A12481F8A92481F8B12481F8B924CA
:104EC00081F8C12481F8C92481F8D12481F8D9243A
:104ED00081F8E12481F8E92481F8F12481F8F924AA
:104EE000BAD10022034600BF0CEB030113F5807317
:104EF00081F8022481F80A2481F8122481F81A2406
:104F000081F8222481F82A2481F8322481F83A2475
:104F100081F8422481F84A2481F8522481F85A24E5
:104F200081F8622481F86A2481F8722481F87A2455
:104F300081F8822481F88A2481F8922481F89A24C5
:104F400081F8A22481F8AA2481F8B22481F8BA2435
:104F500081F8C22481F8CA2481F8D22481F8DA24A5
:104F600081F8E22481F8EA2481F8F22481F8FA2415
:104F7000BAD10022034600BF0CEB030113F5807386
:104F800081F8032481F80B2481F8132481F81B2471
:104F900081F8232481F82B2481F8332481F83B24E1
:104FA00081F8432481F84B2481F8532481F85B2451
:104FB00081F8632481F86B2481F8732481F87B24C1
:104FC00081F8832481F88B2481F8932481F89B2431
:104FD00081F8A32481F8AB2481F8B32481F8BB24A1
:104FE00081F8C32481F8CB2481F8D32481F8DB2411
:104FF00081F8E32481F8EB2481F8F32481F8FB2481
:10500000BAD10022034600BF0CEB030113F58073F5
:1050100081F8042481F80C2481F8142481F81C24DC
:1050200081F8242481F82C2481F8342481F83C244C
:1050300081F8442481F84C2481F8542481F85C24BC
:1050400081F8642481F86C2481F8742481F87C242C
:1050500081F8842481F88C2481F8942481F89C249C
:1050600081F8A42481F8AC2481F8B42481F8BC240C
:1050700081F8C42481F8CC2481F8D42481F8DC247C
:1050800081F8E42481F8EC2481F8F42481F8FC24EC
:10509000BAD10022034600BF0CEB030113F5807365
:1050A00081F8052481F80D2481F8152481F81D2448
:1050B00081F8252481F82D2481F8352481F83D24B8
:1050C00081F8452481F84D2481F8552481F85D2428
:1050D00081F8652481F86D2481F8752481F87D2498
:1050E00081F8852481F88D2481F8952481F89D2408
:1050F00081F8A52481F8AD2481F8B52481F8BD2478
:1051000081F8C52481F8CD2481F8D52481F8DD24E7
:1051100081F8E52481F8ED2481F8F52481F8FD2457
:10512000BAD10022034600BF0CEB030113F58073D4
:1051300081F8062481F80E2481F8162481F81E24B3
:1051400081F8262481F82E2481F8362481F83E2423
:1051500081F8462481F84E2481F8562481F85E2493
:1051600081F8662481F86E2481F8762481F87E2403
:1051700081F8862481F88E2481F8962481F89E2473
:1051800081F8A62481F8AE2481F8B62481F8BE24E3
:1051900081F8C62481F8CE2481F8D62481F8DE2453
:1051A00081F8E62481F8EE2481F8F62481F8FE24C3
:1051B000BAD100220CEB000110F5807081F80724B1
:1051C00081F80F2481F8172481F81F2481F82724FF
:1051D00081F82F2481F8372481F83F2481F847246F
:1051E00081F84F2481F8572481F85F2481F86724DF
:1051F00081F86F2481F8772481F87F2481F887244F
:1052000081F88F2481F8972481F89F2481F8A724BE
:1052100081F8AF2481F8B72481F8BF2481F8C7242E
:1052200081F8CF2481F8D72481F8DF2481F8E7249E
:1052300081F8EF2481F8F72481F8FF24BAD100F037
:10524000C5BA000080B58D20002100F0A3FC142019
:10525000002100F09FFCAF200021BDE8804000F05D
:1052600099BC000070B540F60044C4F202044FF649
:10527000004520464FF480510022CFF6FF750026EE
:10528000FCF76EFA6420FCF787F920464FF4805152
:105290000122FCF765FAAE20002100F07BFCD5204E
:1052A000002100F077FC5020002100F073FCA820C2
:1052B000002100F06FFC3F20002100F06BFCD320A8
:1052C000002100F067FC0020002100F063FC40207A
:1052D000002100F05FFC8D20002100F05BFC142019
:1052E000002100F057FC2020002100F053FC022098
:1052F000002100F04FFCA120002100F04BFCC02059
:10530000002100F047FCDA20002100F043FC1220CD
:10531000002100F03FFC8120002100F03BFCEF2049
:10532000002100F037FCD920002100F033FCF120EF
:10533000002100F02FFCDB20002100F02BFC3020AE
:10534000002100F027FCA420002100F023FCA6206F
:10535000002100F01FFCAF20002100F01BFC40F2F8
:105360006050C2F200002946421811F5807182F89F
:10537000006482F8086482F8106482F8186482F885
:10538000206482F8286482F8306482F8386482F8F5
:10539000406482F8486482F8506482F8586482F865
:1053A000606482F8686482F8706482F8786482F8D5
:1053B000806482F8886482F8906482F8986482F845
:1053C000A06482F8A86482F8B06482F8B86482F8B5
:1053D000C06482F8C86482F8D06482F8D86482F825
:1053E000E06482F8E86482F8F06482F8F864BBD183
:1053F00000212A46831812F5807283F8011483F87D
:10540000091483F8111483F8191483F8211483F80C
:10541000291483F8311483F8391483F8411483F87C
:10542000491483F8511483F8591483F8611483F8EC
:10543000691483F8711483F8791483F8811483F85C
:10544000891483F8911483F8991483F8A11483F8CC
:10545000A91483F8B11483F8B91483F8C11483F83C
:10546000C91483F8D11483F8D91483F8E11483F8AC
:10547000E91483F8F11483F8F914BBD100212A460A
:10548000831812F5807283F8021483F80A1483F8E3
:10549000121483F81A1483F8221483F82A1483F858
:1054A000321483F83A1483F8421483F84A1483F8C8
:1054B000521483F85A1483F8621483F86A1483F838
:1054C000721483F87A1483F8821483F88A1483F8A8
:1054D000921483F89A1483F8A21483F8AA1483F818
:1054E000B21483F8BA1483F8C21483F8CA1483F888
:1054F000D21483F8DA1483F8E21483F8EA1483F8F8
:10550000F21483F8FA14BBD100212A46831812F54D
:10551000807283F8031483F80B1483F8131483F850
:105520001B1483F8231483F82B1483F8331483F8A3
:105530003B1483F8431483F84B1483F8531483F813
:105540005B1483F8631483F86B1483F8731483F883
:105550007B1483F8831483F88B1483F8931483F8F3
:105560009B1483F8A31483F8AB1483F8B31483F863
:10557000BB1483F8C31483F8CB1483F8D31483F8D3
:10558000DB1483F8E31483F8EB1483F8F31483F843
:10559000FB14BBD100212A46831812F5807283F8D0
:1055A000041483F80C1483F8141483F81C1483F87F
:1055B000241483F82C1483F8341483F83C1483F8EF
:1055C000441483F84C1483F8541483F85C1483F85F
:1055D000641483F86C1483F8741483F87C1483F8CF
:1055E000841483F88C1483F8941483F89C1483F83F
:1055F000A41483F8AC1483F8B41483F8BC1483F8AF
:10560000C41483F8CC1483F8D41483F8DC1483F81E
:10561000E41483F8EC1483F8F41483F8FC14BBD17D
:1056200000212A46831812F5807283F8051483F846
:105630000D1483F8151483F81D1483F8251483F8CA
:105640002D1483F8351483F83D1483F8451483F83A
:105650004D1483F8551483F85D1483F8651483F8AA
:105660006D1483F8751483F87D1483F8851483F81A
:105670008D1483F8951483F89D1483F8A51483F88A
:10568000AD1483F8B51483F8BD1483F8C51483F8FA
:10569000CD1483F8D51483F8DD1483F8E51483F86A
:1056A000ED1483F8F51483F8FD14BBD100212A46CC
:1056B000831812F5807283F8061483F80E1483F8A9
:1056C000161483F81E1483F8261483F82E1483F816
:1056D000361483F83E1483F8461483F84E1483F886
:1056E000561483F85E1483F8661483F86E1483F8F6
:1056F000761483F87E1483F8861483F88E1483F866
:10570000961483F89E1483F8A61483F8AE1483F8D5
:10571000B61483F8BE1483F8C61483F8CE1483F845
:10572000D61483F8DE1483F8E61483F8EE1483F8B5
:10573000F61483F8FE14BBD1002100BF421915F501
:10574000807582F8071482F80F1482F8171482F813
:105750001F1482F8271482F82F1482F8371482F865
:105760003F1482F8471482F84F1482F8571482F8D5
:105770005F1482F8671482F86F1482F8771482F845
:105780007F1482F8871482F88F1482F8971482F8B5
:105790009F1482F8A71482F8AF1482F8B71482F825
:1057A000BF1482F8C71482F8CF1482F8D71482F895
:1057B000DF1482F8E71482F8EF1482F8F71482F805
:1057C000FF14BBD1BDE87040AFF3008070B5B020CE
:1057D000002100F0DFF90020002100F0DBF91020AB
:1057E000002100F0D7F940F260546FF00705C2F2D3
:1057F000000400BF6019007A012100F0CBF90835E0
:10580000B5F57E7FF6D1B120002100F0C3F900206C
:10581000002100F0BFF91020002100F0BBF9E51FC6
:10582000802600BF15F8080F012100F0B3F9013EF2
:10583000F8D1B220002100F0ADF90020002100F0E5
:10584000A9F91020002100F0A5F9A51F802600BFAE
:1058500015F8080F012100F09DF9013EF8D1B320A1
:10586000002100F097F90020002100F093F91020AA
:10587000002100F08FF9651F802600BF15F8080F82
:10588000012100F087F9013EF8D1B420002100F099
:1058900081F90020002100F07DF91020002100F0A6
:1058A00079F9251F802600BF15F8080F012100F0A7
:1058B00071F9013EF8D1B520002100F06BF900200C
:1058C000002100F067F91020002100F063F9E51EC7
:1058D000802600BF15F8080F012100F05BF9013E9A
:1058E000F8D1B620002100F055F90020002100F089
:1058F00051F91020002100F04DF9A51E802600BFAF
:1059000015F8080F012100F045F9013EF8D1B72044
:10591000002100F03FF90020002100F03BF91020A9
:10592000002100F037F9013C802500BF14F8080F72
:10593000012100F02FF9013DF8D170BD002B08BF07
:1059400070472DE9F04F83B0203AD7B24EF6E80207
:10595000C0F600024FF0000A02EB07124FF0070CEE
:105960000D460197009207E002980D4601300AF1BA
:10597000010A9A4500F0DC8042B2002A029000F150
:10598000A5805FFA80FB01984EF2744200EB400064
:10599000C0F6000202EB8000009A0C2B02EB0A0614
:1059A00008BF00EB0A0634784FF0000860B2B0F18F
:1059B000FF3F19DDE8B23F283CD82CEA0502012759
:1059C00007FA02F60C9AACEBD000002A40F26052C3
:1059D000C2F20002C0B202EBCB02175C14BFB743A5
:1059E0003743175426E000BFE8B23F2822D80C9A6C
:1059F000ACEBD0062CEA0500002A4FF0010202FAB7
:105A000000F00BD040F26052C2F20002F6B202EB9C
:105A1000CB02975D384390550CE000BF40F26057D1
:105A2000C2F20007F2B207EBCB07BE5C26EA000029
:105A3000B85400BF05F101095FFA89FEAEEB010021
:105A4000984291D0600615D4BEF13F0F29D82CEAB8
:105A50000902012707FA02F60C9AACEBDE00C0B28D
:105A6000B2B140F26052C2F2000202EBCB02175C0C
:105A7000B74315E0BEF13F0F13D82CEA0902012706
:105A800007FA02F60C9AACEBDE00002AC0B2E8D0AE
:105A900040F26052C2F2000202EBCB02175C3743C5
:105AA00017540235E8B2401A98423FF45DAF48F00F
:105AB0000100A400072808F10208FFF477AF02985C
:105AC0000AF1010A9A457FF457AF31E0681CC0B271
:105AD000401A98423FF448AFA81CC0B2401A9842FE
